:060000000A128A1110280B
:10000800FE00030E83160313AE000A08AF007F0834
:10001800B0000A128A150E2F0A128A1113288316A5
:100028000313B301B401B501B601B701B801B901B1
:1000380083010A128A15492C831203133D0880395B
:10004800C2004208C7003D08C2004207C300430877
:10005800CD00BC1F3028312832284D144D08031913
:100068003628372846284D0A031D3B283C284428B3
:100078000030BD000030BC000030BB000030BA00CA
:10008800BC174E280030BD000030BC000030BB005B
:100098000030BA0041088039C2004208C70641084A
:1000A800C2004207C3004308CC00C01F5C285D287B
:1000B8005E284C144C0803196228632872284C0ADD
:1000C800031D6728682870280030C1000030C00070
:1000D8000030BF000030BE00C0177A280030C100D1
:1000E8000030C0000030BF000030BE004C080319CB
:1000F8007E287F2884284D08031D832884288D287E
:100108000030BD000030BC000030BB000030BA0039
:10011800802B3A08C2004208F00040080A128A15EB
:1001280022240A128A11710883120313D30070085B
:10013800D2005208C200C301C401C5014508CB0062
:100148004408CA004308C9004208C8005308C2004E
:10015800C301C401C5014508D1004408D0004308C3
:10016800CF004208CE003B08C2004208F0003F081A
:100178000A128A1522240A128A117108831203139B
:10018800D3007008D2005208C200C301C401C501DF
:100198004208C807430803110318013E0319D5286C
:1001A800C907440803110318013E0319DC28CA07CC
:1001B800450803110318013E0319E328CB07530828
:1001C800C200C301C401C5014208CE074308031198
:1001D8000318013E0319F128CF0744080311031837
:1001E800013E0319F828D007450803110318013EFA
:1001F8000319FF28D1073C08C2004208F0003E0856
:100208000A128A1522240A128A117108831203130A
:10021800D3007008D2005208C200C301C401C5014E
:100228004208C807430803110318013E03191D2992
:10023800C907440803110318013E03192429CA07F2
:10024800450803110318013E03192B29CB0753084E
:10025800C200C301C401C5014208CE074308031107
:100268000318013E03193929CF074408031103185D
:10027800013E03194029D007450803110318013E20
:1002880003194729D1070830C2000310C80DC90D4A
:10029800CA0DCB0DC20B49293B08C2004208F00029
:1002A8003E080A128A1522240A128A11710883123A
:1002B8000313D3007008D2005208C2005308C300C9
:1002C800C401C5014208C807430803110318013EC9
:1002D80003196F29C907440803110318013E0319BC
:1002E8007629CA07450803110318013E03197D2919
:1002F800CB073A08C2004208F0003F080A128A15E4
:1003080022240A128A11710883120313D300700879
:10031800D2005208C2005308C300C401C5014208F4
:10032800C807430803110318013E03199C29C9078C
:10033800440803110318013E0319A329CA074508F5
:1003480003110318013E0319AA29CB070830C2007C
:100358000310C80DC90DCA0DCB0DC20BAC293A0844
:10036800C2004208F0003E080A128A1522240A1226
:100378008A11710883120313D3007008D20052083F
:10038800C2005308C300C401C5014208C807430896
:1003980003110318013E0319D229C90744080311A0
:1003A8000318013E0319D929CA0745080311031880
:1003B800013E0319E029CB073B08C2004208F000C0
:1003C80040080A128A1522240A128A117108831217
:1003D8000313D3007008D2005208C2005308C300A8
:1003E800C401C5014208CE07430803110318013EA2
:1003F8000319FF29CF07440803110318013E031905
:10040800062AD007450803110318013E03190D2ACF
:10041800D1073C08C2004208F0003F080A128A15BA
:1004280022240A128A11710883120313D300700858
:10043800D2005208C2005308C300C401C5014208D3
:10044800CE07430803110318013E03192C2ACF07CE
:10045800440803110318013E0319332AD00745083D
:1004680003110318013E03193A2AD1073C08C200B8
:100478004208F00040080A128A1522240A128A113A
:10048800710883120313D3007008D2005208C20007
:100498005308C300C401C50108300310C20DC30DC1
:1004A800C40DC50DFF3E031D512A4208CE0743085F
:1004B80003110318013E0319622ACF0744080311E8
:1004C8000318013E0319692AD007450803110318C8
:1004D800013E0319702AD1074808C2004908C30021
:1004E8004A08C4004B08C50018300310C50CC40CDA
:1004F800C30CC20CFF3E031D792A4208CE074308ED
:1005080003110318013E03198A2ACF07440803116F
:100518000318013E0319912AD0074508031103184F
:10052800013E0319982AD1070830C2000310C80DEC
:10053800C90DCA0DCB0DC20B9A2A4D084C07C20033
:10054800C301C30D4208823ED20043080318013E8E
:10055800FF3ED300CC2A0130C2000310CE0DCF0DD0
:10056800D00DD10DC20BB12ACB1FBB2ABC2ABD2A84
:100578004E140130C2000310C80DC90DCA0DCB0DB1
:10058800C20BBF2AFF30D2070318D30AFF30D307A4
:10059800D01FCF2AD02AAF2ACC01CB1FD42AD52AE4
:1005A800F12AFF304805C200FF304905C300FF307B
:1005B8004A05C4007F304B05C50045084404430480
:1005C80042040319E82AE92AEC2ACC01CC0AF12AC8
:1005D8004E1CEF2AF02AF12AE92A4C080319F52AB9
:1005E800F62A272B0130CE07003003180130CF0739
:1005F800003003180130D007003003180130D1074C
:10060800511C072B082B272B4E08C2004F08C3008C
:100618005008C4005108C5000130C600450DC50C7E
:10062800C40CC30CC20CC60B122B4508D1004408DD
:10063800D0004308CF004208CE000130D20703188B
:10064800D30A0030D3075308803AFF0080307F0276
:10065800031D302BFF305202031C332B342B3F2B4E
:100668007F3083120313D1008030D0000030CF00D8
:100678000030CE00742B831203135308803AFF0016
:1006880080307F02031D4A2B0130520203184D2B84
:100698004E2B5A2B003083120313D1000030D000A8
:1006A8000030CF000030CE00C701742B8312031333
:1006B8005208C2004208CD00FF30CE05FF30CF05FA
:1006C8007F30D0050030D1054D1C6B2B6C2B6D2B6A
:1006D800D0174D08C2000310420CC3004308D100D4
:1006E8004708C2004208D1045108BD005008BC00A8
:1006F8004F08BB004E08BA000800831203135708BE
:100708008039DC005C08E4005708DC005C07DD0089
:100718005D08E600D61F912B922B932B6614660872
:100728000319972B982BA82B660A031D9C2B9D2B2E
:10073800A52B0030D7000030D6000030D50000309F
:10074800D400D617D701B02B0030D7000030D60020
:100758000030D5000030D4005B088039DC005C082C
:10076800E500650864060319BA2BBB2BBC2B64177C
:100778005B08DC005C07DD005D08E500DA1FC52BBF
:10078800C62BC72B651465080319CB2BCC2BDC2B88
:10079800650A031DD02BD12BD92B0030DB0000308C
:1007A800DA000030D9000030D800DA17DB01E42B7A
:1007B8000030DB000030DA000030D9000030D8000B
:1007C800660865020318E92BEA2B2E2C641FED2B13
:1007D800EE2BF22B8030DC005C08E4066608DC00B7
:1007E8005C08E7006508DC005C08E6006708DC00D8
:1007F8005C08E5005408DC005C08E7005808DC00E9
:100808005C08D4006708DC005C08D8005508DC00E8
:100818005C08E7005908DC005C08D5006708DC00C4
:100828005C08D9005608DC005C08E7005A08DC00C0
:100838005C08D6006708DC005C08DA005708DC00B2
:100848005C08E7005B08DC005C08D7006708DC0090
:100858005C08DB00E7016508DC00DD015D08DF00FE
:1008680066085C02DE00031CDF035F08803AFF00B5
:1008780080307F02031D422C1A305E02031C452C77
:10088800462C832C8312031357085604550454042A
:10089800031D4F2C512C0130522C0030DC005C0819
:1008A800E7000030D7000030D6000030D500003017
:1008B800D4006508DC005C08E6008B2C671C652CFE
:1008C800662C6F2C6708DC0003105C0C0138DD0017
:1008D8005D08E700712C0310E70C541C742C752C70
:1008E800762CE7170130DC00570DD70CD60CD50C49
:1008F800D40CDC0B782C0130DC005C08E607831292
:10090800031365086602031C8A2C8B2C622C641B5B
:100918008E2C8F2CDA2C6608031D932C942C9D2C7E
:100928000030D7000030D6000030D5000030D400A9
:10093800082E5808D407590803110318013E031953
:10094800A62CD5075A0803110318013E0319AD2C2C
:10095800D6075B0803110318013E0319B42CD70707
:10096800571CB72CB82C8E2D671CBB2CBC2CC52C47
:100978006708DC0003105C0C0138DD005D08E70047
:10098800C72C0310E70C541CCA2CCB2CCC2CE71713
:100998000130DC00570DD70CD60CD50CD40CDC0B71
:1009A800CE2C0130DC005C08E6078E2D5708803A13
:1009B800FF005B08803A7F02031DEC2C5A085602A0
:1009C800031DEC2C59085502031DEC2C5808540241
:1009D8000318EF2CF02C482DFF30DC00FF30DD0031
:1009E800FF30DE00FF30DF005808E0005908E10062
:1009F8005A08E2005B08E3005408E0025508031CAB
:100A0800550F072D082DE1025608031C560F0D2D12
:100A18000E2DE2025708031C570F132D142DE30265
:100A28006008DC0761080318610F1B2D1C2DDD070A
:100A380062080318620F212D222DDE0763080318B0
:100A4800630ADF075F08D7005E08D6005D08D50097
:100A58005C08D4008030DC005C08E406E709E70A9B
:100A68006708031D382D392D562D0130D407003065
:100A780003180130D507003003180130D6070030BD
:100A880003180130D707562D5808D4025908031CFB
:100A9800590FD5025A08031C5A0FD6025B08031CCB
:100AA8005B0FD7025708560455045404031D5D2DE7
:100AB8005E2D8A2D6708031D622D632D8A2D003057
:100AC800D7000030D6000030D5000030D400082E02
:100AD8000130DC000310D40DD50DD60DD70DDC0B7D
:100AE8006E2DE71F782D792D7A2D5414671C7D2DD6
:100AF8007E2D812D0314E70D832D0310E70D660865
:100B08000319872D882D8A2D0130E602D61F8D2DD9
:100B18008E2D6C2DE501E71F922D932DA12D6708D1
:100B28007F390319982D992D9C2DE501E50AA12DF2
:100B3800541C9F2DA02DA12D992D65080319A52DB5
:100B4800A62DDA2D0130D407003003180130D5075F
:100B5800003003180130D607003003180130D707DA
:100B6800571CB72DB82DDA2D5408DC005508DD00C8
:100B78005608DE005708DF000130E0005F0DDF0C8B
:100B8800DE0CDD0CDC0CE00BC22D5F08D7005E0824
:100B9800D6005D08D5005C08D400660A0319D52D77
:100BA800D62DDA2D0130DC005C08E607660A031949
:100BB800DE2DDF2DE42D6608031DE32DE42DF22D37
:100BC8000030D7000030D6000030D5000030D40007
:100BD8006608031DF02DF12DF22DE401661CF52D9C
:100BE800F62DF82DD617FC2D7F30DC005C08D605D5
:100BF8006608DC0003105C0CDD005D08D700E41F0C
:100C0800062E072E082ED71708008312031327086D
:100C18008039A8002808B1002708A8002807A900DB
:100C28002908B800A61F192E1A2E1B2E38143808AA
:100C380003191F2E202E302E380A031D242E252E90
:100C48002D2E0030A7000030A6000030A50000308F
:100C5800A400A617A701382E0030A7000030A60070
:100C68000030A5000030A40023088039A800280817
:100C7800B1062308A8002807A9002908B900A21F5F
:100C8800462E472E482E3914390803194C2E4D2E5E
:100C98005D2E390A031D512E522E5A2E0030A30004
:100CA8000030A2000030A1000030A000A217A3016C
:100CB800652E0030A3000030A2000030A1000030F3
:100CC800A0002308220421042004031D6C2E6D2E8D
:100CD800862E0030A7000030A6000030A5000030A6
:100CE800A4008030A6047F30A7043108A800280893
:100CF800A7042708A3002608A2002508A1002408A5
:100D0800A000E52F3808031D8A2E8B2E942E003064
:100D1800A3000030A2000030A1000030A000E52FA1
:100D28003808A800A9012908AB0039082802AA0038
:100D3800031CAB032A087F3EB2002B080318013EB0
:100D4800003EB3002708B0002608AF002508AE0013
:100D58002408AD000030A7000030A6000030A50030
:100D68000030A4000030B7000030B6000030B500F5
:100D78000030B400B9010A2F39080319C42EC52E52
:100D8800E52E0130A8000310AD0DAE0DAF0DB00D6E
:100D9800A80BC72E0130A8000310A40DA50DA60DA1
:100DA800A70DA80BD02EB71FDA2EDB2EDC2E2414AD
:100DB8000130A8000310B40DB50DB60DB70DA80B82
:100DC800DE2E23083002031DF32E22082F02031DF6
:100DD800F32E21082E02031DF32E20082D02031CDA
:100DE800F62EF72E062F37172008AD022108031C10
:100DF800210FAE022208031C220FAF022308031C96
:100E0800230FB0020130A8002808B9071A303902A8
:100E1800031C0F2F102FC02E30082F042E042D0472
:100E28000319172F182F372F3414372F0130A80024
:100E38000310A40DA50DA60DA70DA80B1C2FB71FF9
:100E4800262F272F282F24140130A8000310B40DB3
:100E5800B50DB60DB70DA80B2A2FFF30B207031832
:100E6800B30AFF30B307A61F3A2F3B2F1A2FB90139
:100E7800B71F3F2F402F5C2FFF303405A800FF30ED
:100E88003505A900FF303605AA007F303705AB00CD
:100E98002B082A04290428040319532F542F572FE9
:100EA800B901B90A5C2F241C5A2F5B2F5C2F542FD1
:100EB80039080319602F612F922F0130A4070030E1
:100EC80003180130A507003003180130A6070030C9
:100ED80003180130A707271C722F732F922F24089D
:100EE800A8002508A9002608AA002708AB00013099
:100EF800AC002B0DAB0CAA0CA90CA80CAC0B7D2FCD
:100F08002B08A7002A08A6002908A5002808A4007D
:100F18000130B2070318B30A0030B3073308803A28
:100F2800FF0080307F02031D9B2FFF303202031C1D
:100F38009E2F9F2FAD2FFF3083120313B200003076
:100F4800B3000030A7000030A6000030A500003034
:100F5800A400831203133308803AFF0080307F0215
:100F6800031DB82F013032020318BB2FBC2FC92F25
:100F780083120313B201B3010030A7000030A600AA
:100F88000030A5000030A400B10183120313320819
:100F9800A8002808B800381CD22FD32FD52FA617A1
:100FA800D92F7F30A8002808A6053808A800031004
:100FB800280CA9002908A7003108A8002808A704B8
:040FC8007D2E080072
:10184400F800F401F5017008F200F3017208F600E3
:101854007308F700781C2F2C302C362C7608F407EC
:101864000318F50A7708F50701300310F60DF70D94
:10187400FF3E031D372C0310F80C7808031D432C7E
:10188400442C2C2C7508F1007408F00008000A128E
:101894008A1599240A128A15831203139F18532C4C
:1018A400542C4E2C1F0C83160313B200320C0F3928
:1018B400003A031D5E2C5F2C662C831203131F0851
:1018C400C33904389F008B2C831203131F0C831617
:1018D4000313B200320C0F39013A031D722C732C1E
:1018E4007A2C831203131F08C33908389F008B2CEA
:1018F400831203131F0C83160313B200320C0F3927
:10190400023A031D862C872C8B2CC33083120313BD
:101914009F050C3083160313B200B20B8F2C00000A
:10192400831203139F144E2C0A128A1110280730B5
:101934008316031788008901073083160313850073
:1019440004308700831203138501831603130F08E1
:101954008F3960388F000F148112811101118110A9
:101964000110F9308312031381001F083F394038F6
:101974009F00831603131F129F12C3308312031395
:101984009F05831603139F13831203131F140C3034
:1019940083160313B100B10BCD2C0000831603137F
:1019A40007158714F93092008312031397013F300F
:1019B40097051708F0390C3897003E309500170842
:1019C400CF39203897009D011D08F0390C389D004F
:1019D4003E309B001D129D168C100330920412158C
:1019E4008C1CF52CF62CF22C8C1083160313071187
:1019F4008710831203130C13831603130C170B178E
:101A04008B178B160B1108000310831203136A0D36
:101A14006B0D83160313A000200883120313ED003B
:101A24006D08031D162D172D202D0030EB000030FE
:101A3400EA000030E9000030E800A12D68088316B0
:101A44000313A00083120313690883160313A10070
:101A5400831203136A0883160313A2008312031369
:101A64006B0883160313A3001F300310A30CA20CEE
:101A7400A10CA00CFF3E031D372D2008A400240850
:101A840083120313EC00EA17FF30E805FF30E90581
:101A9400FF30EA050030EB059630ED02ED1F532DC3
:101AA400542D722D6D08803A973E03185A2D5B2DE4
:101AB4005C2D172D01300310EB0CEA0CE90CE80C3B
:101AC400FF3E031D5D2D013083160313A000200883
:101AD40083120313ED07031D702D712D5C2D912DC1
:101AE40020306D02031C772D782D8C2D172D01309D
:101AF40083160313A000031083120313E80DE90DEA
:101B0400EA0DEB0D83160313A00B7D2D0130831218
:101B14000313ED026D08031D902D912D792D6C0892
:101B24000319952D962DA12DE809E909EA09EB0978
:101B3400E80A0319E90A0319EA0A0319EB0A080077
:101B440083120313EE00831603132708F0002808FA
:101B5400F100F201F30100300A128A1554260A1228
:101B64008A15730883120313DB007208DA00710804
:101B7400D9007008D8008316031327082902F0003F
:101B84002808031C280A2A02F100F201F30100309C
:101B94000A128A1554260A128A157308831203132B
:101BA400A7007208A6007108A5007008A400831697
:101BB400031325082602F000F101031CF103F201CE
:101BC400F11BF2037208F30001300A128A1554263D
:101BD4000A128A15730883120313A3007208A20061
:101BE4007108A1007008A0000A128A1109260A12BD
:101BF4008A15831203132308C1002208C000210898
:101C0400BF002008BE0083160313250883120313A4
:101C14006E02F000F101031CF103F201F11BF20367
:101C24007208F30001300A128A1554260A128A1522
:101C3400730883120313BD007208BC007108BB0053
:101C44007008BA000A128A1120200A128A15831217
:101C540003133D08D7003C08D6003B08D5003A08DA
:101C6400D4000A128A1181230A128A1583120313DB
:101C74005708EB005608EA005508E9005408E80044
:101C84000A128A1506250A128A1583120313690893
:101C940083160313A6008312031368088316031321
:101CA400A5000800F80078080319592E5A2E6E2E44
:101CB400F31F5D2E5E2E6E2E7009FA007109FB0073
:101CC4007209FC007309FD00FA0A0319FB0A0319DF
:101CD400FC0A0319FD0A762E7308FD007208FC0045
:101CE4007108FB007008FA00730872047104700430
:101CF400031D7D2E7E2E872E0030F3000030F2006F
:101D04000030F1000030F0000D2F9630F40074081C
:101D1400F900992E0130F4007408F907013003101A
:101D2400FD0CFC0CFB0CFA0CFF3E031D912EFE3047
:101D34007D05031D9E2E9F2E8C2EBB2E0130F4009C
:101D44007408F9070130FA07003003180130FB0763
:101D5400003003180130FC07003003180130FD0780
:101D640001300310FD0CFC0CFB0CFA0CFF3E031DB0
:101D7400B32EFF307D05031DC02EC12EA02ECD2E07
:101D84000130F9020130F4000310FA0DFB0DFC0DD3
:101D9400FD0DF40BC62EFC1BD02ED12ED72E0230F7
:101DA40079020318D62ED72EC22E7918DA2EDB2EFE
:101DB400E32EFF30FA05FF30FB057F30FC05FF30D2
:101DC400FD050310F90C7908F400F501F601F7019B
:101DD40018300310F40DF50DF60DF70DFF3E031D3D
:101DE400EB2E7408FA047508FB047608FC047708E3
:101DF400FD0478080319FF2E002F052FF31F032F6E
:101E0400042F052FFD177D08F3007C08F2007B08E2
:101E1400F1007A08F0000800831203130C1F132F3B
:101E2400142FD62F1F0C83160313AB002B0C0F3962
:101E3400003A031D1E2F1F2F5A2FA501FF30AB00A0
:101E44002B08A600FA30A7000030A800F430A9003F
:101E54000130AA00831203131E080A128A15A22550
:101E64000A128A15831603132608B8002508B7003A
:101E74003808AC003708AB000310AC0CAB0C0310F3
:101E8400AC0CAB0C2B0883120313950083160313BD
:101E940037080339AB00AB0E8312031317088316FC
:101EA40003132B06CF392B06831203139700D32F6A
:101EB400831203131F0C83160313AB002B0C0F396F
:101EC400013A031D662F672FBB2FA501FF30AB001E
:101ED4002B08A600FA30A7000030A800F430A900AF
:101EE4000130AA00831203131E080A128A15A225C0
:101EF4000A128A15831603132608B6002508B500AE
:101F04003608AC003508AB000310AC0CAB0C031066
:101F1400AC0CAB0C2B08831203139B008316031326
:101F240035080139AB00AB0E831203131D08831669
:101F340003132B06EF392B06831203139D0083161C
:101F440003133608AC003508AB000310AC0CAB0C23
:101F54002B080139AD00AD0EAD0D831203131D081E
:101F6400831603132D06DF392D06831203139D00F8
:101F7400D32F831203131F0C83160313AB002B0CF4
:101F84000F39023A031DC72FC82FD32F831203130F
:101F94001E0883160313AB00AC012B08B3002C08F6
:101FA400B40083120C13F52F0B1DD92FDA2FF52F44
:101FB400013083160313AB002B08B9073408803AA9
:101FC400803C031DE72F330839020318EA2FEB2F57
:101FD400EF2F831203138715F22F83120313871134
:101FE4000B11F9308100831603133008FF002F080A
:0C1FF4008A002E0E8300FE0E7E0E0900F7
:08400000FF3FFF3FFF3FFF3FC0
:04400E00D420FF3F7C
:00000001FF
